:020000040000FA
:0400000060EF1CF0A1
:08000800056ED8CF06F0E950A7
:10001000076EEA50086EE150096EE2500A6ED95040
:100020000B6EDA500C6EE0500D6E000100500F6E3A
:100030000150106E0250116E0350126E0450136E78
:100040009DAA26EF00F09EBA62EF00F0A3AE2CEF5F
:1000500000F0A4BECAEF00F0A3AA32EF00F0A4BAE9
:1000600099EF00F0A3A238EF00F0A4B2E4EF03F0A0
:10007000A3A03EEF00F0A4B0E9EF03F00F50006E34
:100080001050016E1150026E1250036E1350046E28
:100090000D50E06E0D8E0750E96E0850EA6E095063
:1000A000E16E0A50E26E0B50D96E0C50DA6E0550BC
:1000B00006C0D8FF1000CE50CFCF03F0016E035022
:1000C000026E000CABA269EF00F0AB98AB8891EF29
:1000D00000F0ABA470EF00F0AECF4FF291EF00F064
:1000E0001E500E08D8A08FEF00F0036A1E50320F8A
:1000F000E96E000E0320EA6EAECFEFFF32502D08FE
:10010000D8A486EF00F01E2A87EF00F01E6A5BEC91
:1001100000F002C020F001C01FF091EF00F0AECF60
:100120004FF29E9A3EEF00F094968B866F88188867
:10013000000C1A52D8A4A1EF00F01A0E1A6E74CF58
:100140001BF094EC00F0749E749CA49A3EEF00F0B7
:10015000020152519A08D8B4BDEF00F052519B08E9
:10016000D8B4BDEF00F052519C08D8B4BDEF00F0F8
:1001700052519D08D8A4C3EF00F0010E016EC7EFE5
:1001800000F0C7EF00F0000E016EC7EF00F00001B5
:10019000CEEF00F022C052F2A8EF00F00152D8A436
:1001A000D5EF00F0A49EE4EF00F01A52D8A4E1EFDE
:1001B00000F01B0E1A6E40CF1BF030CF1CF020CF8A
:1001C0001DF094EC00F0A49EA49E3EEF00F002010E
:1001D00078510808D8B44CEF01F078519008D8B4A1
:1001E0004CEF01F078519108D8B44CEF01F0785100
:1001F0009208D8B44CEF01F078519308D8B44CEF82
:1002000001F078519408D8B44CEF01F0785195087A
:10021000D8B44CEF01F078519608D8B44CEF01F007
:1002200078519A08D8B44CEF01F078519B08D8B4B3
:100230004CEF01F078519C08D8B44CEF01F07851A4
:100240009D08D8B44CEF01F078519E08D8B44CEF1B
:1002500001F078519F08D8B44CEF01F07851A00814
:10026000D8B44CEF01F07851A108D8B44CEF01F0AC
:100270007851A208D8B44CEF01F07851A308D8B453
:100280004CEF01F07851A408D8B44CEF01F078514C
:10029000A508D8A452EF01F0010E016E56EF01F04F
:1002A00056EF01F0000E016E56EF01F00001000C58
:1002B00087C28AF286C289F2020188A7DAEF01F0CA
:1002C0008951016E8A51036E01508B6F000103C08A
:1002D0008CF202018451E96E000185C2EAFFEF341D
:1002E000006E00360036F80E0016005002018E6FC8
:1002F00000018CC2EAFF8BC2E9FF8EC2EFFF010E44
:1003000002018925016E000E8A21036E01508B6F58
:10031000000103C08CF202018451E96E000185C224
:10032000EAFFEF38006E0032070E0016005002019F
:100330008E6F00018CC2EAFF8BC2E9FF8EC2EFFF15
:100340000201842BD8B4852B8951016E8A51036E2A
:1003500001508B6F000103C08CF203C0EAFF8BC217
:10036000E9FFEFCF8DF202018451E96E000185C2F1
:10037000EAFFEF38006E0032070E0016005002014F
:100380008D118F6F00018CC2EAFF8BC2E9FF8FC213
:10039000EFFF020E02018925E96E000E8A21EA6E46
:1003A000EF6A030E8925E96E000E8A21EA6EEF6A74
:1003B000ABEF02F0020E8925016E000E8A21036E5A
:1003C00001508B6F000103C08CF202018451E96E71
:1003D000000185C2EAFFEF38006E0036E00E00161D
:1003E000005002018E6F00018CC2EAFF8BC2E9FF50
:1003F0008EC2EFFF030E02018925016E000E8A21D5
:10040000036E01508B6F000103C08CF20201845116
:10041000E96E000185C2EAFFEF30006E0032003263
:100420001F0E0016005002018E6F00018CC2EAFF01
:100430008BC2E9FF8EC2EFFF0201842BD8B4852B5B
:10044000020E8925016E000E8A21036E01508B6F0A
:10045000000103C08CF203C0EAFF8BC2E9FFEFCFBB
:100460008DF202018451E96E000185C2EAFFEF506E
:10047000030B02018D118F6F00018CC2EAFF8BC24A
:10048000E9FF8FC2EFFF020E02018925016E000E07
:100490008A21036E01508B6F000103C08CF203C0F0
:1004A000EAFF8BC2E9FFEFCF8DF202018451E96EC2
:1004B000000185C2EAFFEF50E00B006E003200320F
:1004C00000321F0E0016005002018D11906F0001C6
:1004D0008CC2EAFF8BC2E9FF90C2EFFF0201842BBE
:1004E000D8B4852B010E8925016E000E8A21036E7A
:1004F00001508B6F000103C08CF202018451E96E40
:10050000000185C2EAFFEF5002018D6F00018CC22D
:10051000EAFF8BC2E9FF8DC2EFFF0201842BD8B442
:10052000852B8951016E8A51036E01508B6F00013A
:1005300003C08CF202018451E96E000185C2EAFF1A
:10054000EF5002018D6F00018CC2EAFF8BC2E9FF00
:100550008DC2EFFF02010001000C02017E51E96E25
:1005600000017FC2EAFFEF6A60AEE6EF02F0F10E33
:100570006F1602018381A49074AECBEF02F00001EC
:1005800002017E51E96E00017FC2EAFFEF500809C7
:10059000EF6E749E020160A4E3EF02F0000102011D
:1005A0007E51E96E00017FC2EAFF6050070BEF1039
:1005B000EF6E02017E51E96E00017FC2EAFFEF504B
:1005C000010BEF6E02012CEF03F000010F0150AFA1
:1005D00026EF03F0F10E6F160A0E6F1202018391DF
:1005E000A49274AC00EF03F0000102017E51E96EA9
:1005F00000017FC2EAFFEF500809EF6E749C020110
:10060000000102017E51E96E00017FC2EAFF0F0185
:100610005051070BEF10EF6E00017FC203F0020193
:100620007E51E96E00017FC2EAFFEF500108D8A0B9
:1006300023EF03F002017E51E96E00017FC2EAFF61
:10064000EF508009EF6E2BEF03F00F01000E016EEB
:10065000C7EF03F000010201000102017C51E96EC5
:1006600000017DC2EAFF65500F0BEF6E65AC42EFF3
:1006700003F002017E51E96E00017FC2EAFFEF50F4
:100680004009EF6E62A660EF03F002017E51E96E51
:1006900000017FC2EAFFEF502009EF6E0F0E02014A
:1006A000856F610E846F000179C287F278C286F28D
:1006B000F70E0201886F000158EC01F070EF03F0B3
:1006C0000F0E0201856F610E846F000179C287F2FF
:1006D00078C286F2FF0E0201886F000158EC01F02B
:1006E00002017A517B11D8B4AAEF03F00F0E826F8A
:1006F000660E816F806B00017DC203F002017C51A8
:10070000E96E00017DC2EAFFEF500201805DD8B0C2
:10071000AAEF03F0036A80517A25016E7B51032210
:100720000150846F000103C085F2036A0201805109
:100730008125E96E82510320EA6EEF50866F000139
:1007400085C2EAFF84C2E9FF86C2EFFF0201802B67
:100750007BEF03F0F10E6F16A4AEBBEF03F00001C8
:1007600002017E51E96E00017FC2EAFFEF501009DD
:10077000EF6EA49E020183A1C1EF03F0609EC4EF5F
:1007800003F00F01509F0201010E016E0F010001E5
:10079000000C23C078F2E7EC00F00152D8B4E3EF8C
:1007A00003F0020E0201796F720E786F7B6B7A6B29
:1007B000020E7D6F760E7C6F020E7F6F770E7E6F5E
:1007C0000001ADEC02F0000CC9EC03F0A4923EEF86
:1007D00000F0C9EC03F0A4903EEF00F0550E926ECD
:1007E000280E936EB70E946EF19E080E896E8A6A7B
:1007F000E6EF1CF0020EEA6E3C0EE96EEF50D8B444
:100800000FEF04F0060E016E006A002EFED7012ED7
:10081000FBD77B0E006E002EFED7EF2EF3D7000C19
:100820000201146B1351145DD8B030EF04F0036A69
:1008300014511125E96E12510320EA6E0001EFCF29
:1008400015F2020115519EA823EF04F0AD6E140EAF
:100850003C6F0001FAEC03F00201142B12EF04F0DC
:100860000001000CF2CF11F2F29EAA6AF00EA96EFE
:10087000A69CA69EA680A850020111BFF28E106F02
:10088000103D45EF04F047EF04F09FEF04F0040E35
:10089000116FFA0E3C6F0001FAEC03F00201112F08
:1008A000F8D7240E326E336E346E126B320E116F27
:1008B000030E136F000110EC04F0320E02013C6FC6
:1008C0000001FAEC03F0430E326E2C0E336E300E44
:1008D000346E356E366E320E376E370E386E320E1F
:1008E000396E330E3A6E3B6E3C6E430E3D6E360EE5
:1008F0003E6E440E3F6E0201126B320E116F0E0EF1
:10090000136F000110EC04F00C0E0201116FFA0ECF
:100910003C6F0001FAEC03F00201112FF8D72D0E05
:10092000326E336E346E0D0E356E126B320E116FE9
:10093000040E136F000110EC04F01E6A02010001A6
:1009400024EF1DF0020110519708D8B4DAEF04F03B
:1009500010519808D8B4DAEF04F010519908D8B4BF
:10096000DAEF04F01051F008D8B4DAEF04F01051C7
:10097000B008D8B4DAEF04F01051A908D8B4DAEF0F
:1009800004F01051AB08D8B4DAEF04F01051AC0801
:10099000D8B4DAEF04F01051AD08D8B4DAEF04F0AF
:1009A0001051B908D8B4DAEF04F01051BA08D8A43D
:1009B000E0EF04F0010E016EE4EF04F0E4EF04F068
:1009C000000E016EE4EF04F00001000C0201426B26
:1009D000436B436B4151435DD8B0FBEF04F0036AB6
:1009E00043513F25E96E40510320EA6EEF50422704
:1009F000432BEAEF04F04251016E0001000C000E9F
:100A000018BC010E0108D8A40DEF05F03350B00852
:100A1000D8B40DEF05F0850E1A6E32502D08D8B4FB
:100A200014EF05F0800E1A6E34500A08D8B031EF7A
:100A300005F0156AF2BE158EF29E33C078F2E7EC2F
:100A400000F015BEF28E0152D8A431EF05F033C08C
:100A500010F2A2EC04F00152D8A431EF05F0810E9F
:100A60001A6E0201406B330E3F6F0D0E416F000195
:100A7000E6EC04F00150405CD8B441EF05F0020E02
:100A80001A6E2DEF1DF0020110518208D8B46CEFE0
:100A900005F010518408D8B46CEF05F010518108AE
:100AA000D8B46CEF05F010518908D8B46CEF05F09C
:100AB00010519308D8B46CEF05F010519408D8B4D5
:100AC0006CEF05F010519508D8B46CEF05F010519B
:100AD0009608D8A472EF05F0010E016E76EF05F0CE
:100AE00076EF05F0000E016E76EF05F00001E6EFFF
:100AF00019F0FF0E02014B6F4A514A07000AD8B4A1
:100B0000A7EF05F04951036E4851482BD8B4492B43
:100B1000E96E000103C0EAFFEF5002014C6F4C5137
:100B20004B1B4D6B4D510708D8A0A5EF05F04BAFFF
:100B3000A0EF05F0D8904B351D0A4B6FA2EF05F0E2
:100B4000D8904B374D2B92EF05F07CEF05F04B51D1
:100B5000FF0A016E0001000C276A266A2B6A800ECC
:100B6000296ED56E780E016E0609CA6E230ECB6E05
:100B7000000C16C22EF0ACEC05F014C230F013C21B
:100B80002FF02F502C6E30502D6E2CC0E9FF2DC051
:100B9000EAFF15C22BF0820ED56E9E929EA2D7EF71
:100BA00005F09E922E52D8B452EF06F02E06D66A69
:100BB00080B8CEEF05F0950ED65CD8A0D8EF05F042
:100BC00080B8E8EF05F0BB0ED65CD8A0E0EF05F0EA
:100BD000D66A81827D0ED65CD8A0EAEF05F08192BC
:100BE000D66A0D0ED65CD8A0F1EF05F080B81CEFE8
:100BF00006F02794EFBE278427B410EF06F03EECF2
:100C000006F080B81CEF06F0280ED65CD8A001EFE5
:100C100006F026B657EF06F0D66A818221EF06F07D
:100C20003EEC06F080B81CEF06F0500ED65CD8A063
:100C300012EF06F009EF06F02E52D8A42E06BBEFF5
:100C400005F027B437EF06F0500ED65CD8A024EF9D
:100C500006F0D66A81923EEC06F026B657EF06F013
:100C60000D0ED65CD8A030EF06F0FCEF05F0280E94
:100C7000D65CD8A037EF06F029EF06F0D8902932DD
:100C8000D8B049EF06F02950EF142794D8A4278450
:100C90001200E92A2B06D8B455EF06F0800E296E13
:100CA00043EF06F0268A59EF06F0268612002780C9
:100CB00027822650016E48EF07F0000E016E0409EE
:100CC000CA6E270ECB6E97EF06F016C22EF0ACEC74
:100CD00005F014C230F013C22FF02F502C6E30509C
:100CE0002D6E15C22BF09E922CC0E9FF2DC0EAFF9D
:100CF0002E52D8B4CEEF06F09EA281EF06F09E925F
:100D00002E06D66A80B478EF06F0AF0ED65CD8A077
:100D100082EF06F080B492EF06F0F00ED65CD8A019
:100D20008AEF06F0D66A809680825DEF06F04B0E61
:100D3000D65CD8A097EF06F080868092550ED65CE0
:100D4000D8A09EEF06F080B4F7EF06F02794EFBE30
:100D5000278480B4F7EF06F0710ED65CD8A0A9EF17
:100D600006F0CC6A9E920000000000000000000027
:100D700080968082D66A27A4D1EF06F09EA2BEEFAD
:100D800006F0808680929E921F0ED65CD8A0C4EF9B
:100D900006F080B4F7EF06F0D5EF06F0268AFFEFF5
:100DA00006F09EA2D1EF06F09E929EA2D5EF06F02D
:100DB000808680929E92D8902932D8B0EEEF06F0CD
:100DC0002950EF142794D8A4278480B4F7EF06F0B5
:100DD0009EA2E5EF06F09E92B8EF06F0E92A2B06F8
:100DE000D8B4FCEF06F0800E296EE0EF06F02E522C
:100DF000D8A42E0667EF06F0268627802782265085
:100E0000016E5CEF07F002013AA30BEF07F0820ED0
:100E10001A6E17EF07F03AAB12EF07F0070E1A6ED3
:100E200017EF07F03AA917EF07F0830E1A6E0001CB
:100E3000000C030E3424036A320F016E000E0322ED
:100E400001500201136F000103C014F20201496B4B
:100E5000350E486F000134C04AF279EC05F014C237
:100E6000EAFF13C2E9FF01C0EFFF0201102D4DEFB1
:100E700007F0010E3424126F146B350E136F00014E
:100E800012C215F2320E0201166F0001B9EF05F021
:100E900001C011F25EEF07F00201010E3424126F5F
:100EA000146B350E136F000112C215F2320E0201DF
:100EB000166F000165EF06F001C011F211C23AF29F
:100EC00003EC07F0000C0201425144030001F3CF90
:100ED00001F0F4CF00F002014503F3500026435126
:100EE0004403F3500020026E0001000C42C22EF0B9
:100EF000ACEC05F03FC230F03EC22FF02F502C6E0C
:100F000030502D6E820ED56E2CC0E9FF2DC0EAFF49
:100F10009E929EA291EF07F09E922E06D8B4FAEF11
:100F200007F0D66A80A889EF07F0650ED65CD8A0D6
:100F300092EF07F0950ED65CD8B0FDEF07F080B8C1
:100F40009AEF07F0D66A2796010E286E80A8B9EFAF
:100F500007F0D6502A6ED66A2786150E2A5CD8A0CE
:100F6000FDEF07F03B0E2A5CD8A0DAEF07F0DDEFCB
:100F700007F0660ED65CD8A0A6EF07F0F2EF07F0F8
:100F800080B8D3EF07F0D6502A6ED66A2796140E93
:100F90002A5CD8A0FDEF07F03B0E2A5CD8A0DDEF5D
:100FA00007F0DAEF07F0660ED65CD8A0C0EF07F0C6
:100FB000FDEF07F0D890DEEF07F0D8802836D8A0F4
:100FC000EDEF07F02B2A0D0E2B5CD8B0F7EF07F0F2
:100FD0002850EF6EE92A010E286E27A6A6EF07F02B
:100FE000C0EF07F0268027802782FEEF07F02688D3
:100FF000FEEF07F0268AFEEF07F02682020140513D
:10100000E96E000141C2EAFF2BC0EFFF2650016EDE
:1010100047EF09F042C22EF0ACEC05F03FC230F0D1
:101020003EC22FF02F502C6E30502D6E2CC0E9FF99
:101030002DC0EAFF9E929EA223EF08F09E922E06FC
:10104000D8B462EF08F0D66A80A41BEF08F0460E11
:10105000D65CD8A024EF08F05F0ED65CD8B05CEF69
:1010600008F080B42CEF08F0000E016E0409CA6E7F
:10107000FF0ECB6ECC6A80B445EF08F09D0ED65CB7
:10108000D8A03AEF08F05CEF08F0010E286E80A4BB
:1010900051EF08F06E0ECC5CD8A047EF08F05CEF83
:1010A00008F03E0ECC5CD8A065EF08F0D89066EF53
:1010B00008F0CC6A47EF08F0268286EF08F0268811
:1010C00086EF08F0268A88EF08F0D8802836D8A066
:1010D00075EF08F02B2A0D0E2B5CD8B05FEF08F0EF
:1010E0002850EF6EE92A010E286E80B459EF08F0FF
:1010F000930ECC5CD8A075EF08F0268080B45CEF2E
:1011000008F0C80ECC5CD8A07EEF08F027802782BC
:1011100002014051E96E000141C2EAFF2BC0EFFF1E
:101120002650016E71EF09F0CE50CFCF03F00201CF
:101130003C6F000103C03DF202013A513C5D006E7C
:101140003B513D59036E0050016E0350026E000189
:10115000000C02013C6B21503C5DD8B00EEF09F051
:10116000436B00013CC242F20201456B0C0E446F1E
:10117000000163EC07F002C03EF201C03DF2036AD9
:1011800002013C513A25E96E3B510320EA6E010E03
:10119000EF5C0124016E000E0220036E0150410F2E
:1011A000E96E000E0320EA6E0001EFCF41F202016A
:1011B000436B00013CC242F20201456B0C0E446FCE
:1011C000000163EC07F002C043F201C042F2410E9D
:1011D00002010124446F000E0220456F036A3C5156
:1011E0003A25E96E3B510320EA6E010EEF5C476F32
:1011F000000145C249F244C248F247C24AF279ECC2
:1012000005F001500201415DD8B40BEF09F0090E61
:101210001A6E0EEF09F03C2BABEF08F000011FEF48
:101220000AF00201376B366B356B346B00015BECF7
:1012300000F002C039F201C038F2216A0201102D1B
:101240004CEF09F0436B000121C042F20201456BF3
:101250000C0E446F000163EC07F002C03BF201C0CA
:101260003AF2410E020101243C6F000E02203D6F54
:1012700000013DC23FF23CC23EF2020E0201416F4C
:10128000130E406F320E426F000176EF07F001C07F
:1012900012F273EF09F00201436B000121C042F228
:1012A0000201456B0C0E446F000163EC07F002C0B5
:1012B0003BF201C03AF2410E020101243C6F000EE4
:1012C00002203D6F00013DC23FF23CC23EF2020EE1
:1012D0000201416F130E406F320E426F00010AEFA0
:1012E00008F001C012F239C23BF238C23AF294EC73
:1012F00008F001C000F002C001F0026A036A005069
:10130000020134270150352302503623035037237E
:101310003753D8A4A3EF09F036510008D8B0A7EF8F
:1013200009F0FF0AD8A4A3EF09F035516D08D8B031
:10133000A7EF09F0FF0AD8A4A3EF09F0345136084B
:10134000D8B0A7EF09F0070E1A6E0EEF0AF00001F1
:101350005BEC00F002C039F201C038F2020112ABBE
:10136000B6EF09F000011EEF09F00201000112C200
:101370003AF203EC07F01A52D8B4C3EF09F00201B5
:101380000EEF0AF000010201436B000121C042F29E
:101390000201456B0C0E446F000163EC07F002C0C4
:1013A0003BF201C03AF2030E02010124016E000E6D
:1013B0000220036E0150410FE96E000E0320EA6E19
:1013C0000001EFCF3CF23850400902013C5DD8B437
:1013D000EEEF09F000011EEF09F00201036A21504F
:1013E000140FE96E020E0320EA6E000113C2EFFF34
:1013F0000201376B366B356B346B212A21501F0885
:10140000D8B005EF0AF00EEF0AF018A60AEF0AF0BE
:101410000EEF0AF000011EEF09F002012152D8B4CC
:1014200018EF0AF01A500708D8A418EF0AF01A6A41
:10143000020E3B6F140E3A6F0001A9EF08F0000C8A
:101440008A9C939C8A9E939E020E02013C6F00012F
:10145000FAEC03F08A8C939C8A8E939EC80E02014C
:101460003C6F0001FAEC03F00201156B15510708FF
:10147000D8A059EF0AF014A14AEF0AF08A9C939C75
:101480008A9E939EC80E3C6F0001FAEC03F053EF66
:101490000AF002018A8C939C8A8E939EC80E3C6F40
:1014A0000001FAEC03F0D89002011433152B36EF4B
:1014B0000AF08A9C939C8A9E939EC80E3C6F000102
:1014C000FAEC03F080EF0BF0080E006E938A81AA0D
:1014D00067EF0AF002013E6B008E81EF0AF0009E7A
:1014E00081EF0AF0D89081AAD8803E33008C81EF3A
:1014F0000AF0009C002E72EF0AF03E51016E91EF4F
:101500000AF0A70E00BE2D0E016E012E85EF0AF027
:10151000000000BE6FEF0AF000BC79EF0AF072EF36
:101520000AF00001F4EF0AF0080E006E938A81AA17
:1015300097EF0AF002013E6B008EB1EF0AF0009EB9
:10154000B1EF0AF0D89081AAD8803E33008CB1EF79
:101550000AF0009C002EA2EF0AF03E51016EC0EF8F
:101560000AF09A0E00BE2A0E016E012EB5EF0AF0A7
:1015700000BE9FEF0AF000BCA9EF0AF0A2EF0AF04C
:101580000001FDEF0AF002013851E96E000139C295
:10159000EAFFEF6A02013D6B3C6B81BAE7EF0AF0AC
:1015A0003C2BD8B43D2B3D513B5DD8A0E7EF0AF072
:1015B000D8A4E0EF0AF03A513C5DD8B0E7EF0AF06A
:1015C000100E006E002EFED70000CDEF0AF081AAAB
:1015D00003EF0BF0000E19B0010E0108D8A4FAEFCA
:1015E0000AF0000164EF0AF0015010EF0BF000EF79
:1015F0000BF00201000194EF0AF0015010EF0BF024
:1016000010EF0BF00201000102013851E96E0001F8
:1016100039C2EAFF010EEF6E000E016E10EF0BF003
:10162000000C939C8A8C080E016E000000000000E4
:10163000018E30EF0BF0019E020116330001D8B08D
:101640008A9CD8A08A8C018C30EF0BF0019C012E73
:101650001CEF0BF00000000000008A9C30EF0BF044
:10166000A70EE96EE92E32EF0BF0000001BE1BEF72
:101670000BF001BC26EF0BF075EF0BF0939C8A8CFE
:10168000080E016E000000000000018E5DEF0BF0FF
:10169000019E020116330001D8B08A9CD8A08A8C22
:1016A000018C5DEF0BF0019C012E49EF0BF0000067
:1016B000000000008A9C5DEF0BF09A0EE96EE92EA7
:1016C0005FEF0BF001BE48EF0BF001BC53EF0BF0E6
:1016D0007BEF0BF0000E19B0010E0108D8A477EFD4
:1016E0000BF015C216F211EF0BF07BEF0BF015C2E9
:1016F00016F23EEF0BF0000C10C214F220EF0AF0CD
:1017000010C21BF0020E0201396F130E386F750EF6
:101710003B6F300E3A6F0001C3EC0AF001C011F2CA
:101720000201132D98EF0BF0200E1A6EFDEF0BF057
:1017300011515508D8B4A5EF0BF0030E1A6E000135
:1017400011C21CF00201FDEF0BF0126B12510108E7
:10175000D8A0C4EF0BF0020E396F130E386F070ECE
:101760003B6FD00E3A6F0001C3EC0AF001C011F2DA
:1017700002011353D8B4C1EF0BF0840E1A6EFDEFC3
:101780000BF0122BA6EF0BF0230E3C6F0001FAECCE
:1017900003F002011151146F141F000114C215F25D
:1017A0006AEC0BF011C21CF0020E0201396F130E2D
:1017B000386F3B6F880E3A6F0001C3EC0AF001C02E
:1017C00011F20201132DE9EF0BF01F0E1A6EFDEF5F
:1017D0000BF01051FF0A115DD8B4F7EF0BF0040EB7
:1017E0001A6E000111C21CF00201FDEF0BF03C0E5D
:1017F0003C6F0001FAEC03F002010001000C939E23
:101800008A8E080E016E000000000000018E1EEF9F
:101810000CF0019E020114330001D8B08A9ED8A0BA
:101820008A8E018C1EEF0CF0019C012E0AEF0CF049
:101830000000000000008A9E1EEF0CF0A70EE96E6B
:10184000E92E20EF0CF0000001BE09EF0CF001BC06
:1018500014EF0CF06AEF0CF0939E8A8E080E016E66
:10186000000000000000018E4BEF0CF0019E020111
:1018700014330001D8B08A9ED8A08A8E018C4BEF19
:101880000CF0019C012E37EF0CF00000000000006E
:101890008A9E4BEF0CF09A0EE96EE92E4DEF0CF09C
:1018A00001BE36EF0CF001BC41EF0CF070EF0CF014
:1018B000000E18BE010E0108D8A470EF0CF0000E47
:1018C00019B0010E0108D8A46CEF0CF013C214F289
:1018D000FFEF0BF070EF0CF013C214F22CEF0CF0D2
:1018E000000C0201106B3450105DD8B0A8EF0CF062
:1018F000030E1025036A320FE96E000E0320EA6E14
:101900000001EFCF12F212C215F26AEC0BF0030ED7
:1019100002011025036A320FE96E000E0320EA6E01
:101920000001EFCF12F212C213F258EC0CF0000ECD
:1019300019B2010E0108D8A4A4EF0CF0050E0201A3
:101940003C6F0001FAEC03F00201102B73EF0CF076
:10195000000E19B4010E0108D8A4C2EF0CF0406BC0
:10196000350E3F6F000134C041F2E6EC04F001C0D7
:1019700010F210C215F26AEC0BF010C213F258EC20
:101980000CF002010001000CCE50CFCF03F0020199
:10199000386F000103C039F202013451385D3A6FEB
:1019A000355139593B6F37513B5DD8A0E6EF0CF00C
:1019B000D8A4E0EF0CF036513A5DD8A0E6EF0CF079
:1019C000010E016EEAEF0CF0EAEF0CF0000E016E72
:1019D000EAEF0CF00001000C5BEC00F002C013F227
:1019E00001C012F281AA61EF0DF00201116B1151D9
:1019F0000B08D8A038EF0DF0436B000121C042F274
:101A00000201456B0C0E446F000163EC07F002C04D
:101A100035F201C034F2020111510124016E000EB1
:101A20000220036E0150410F016E000E032201508F
:101A3000366F000103C037F2020E0201396F100E3B
:101A4000386F070E3B6FD00E3A6F0001C3EC0AF0FF
:101A500037C2EAFF36C2E9FF01C0EFFF02011053AF
:101A6000D8B435EF0DF038EF0DF0112BF7EF0CF087
:101A70001153D8A444EF0DF02152D8A444EF0DF037
:101A8000050E1A6EE9EF0DF0036A2150140FE96E8E
:101A9000020E0320EA6E000111C2EFFF212A21503D
:101AA0001F08D8B056EF0DF071EF0DF018A65BEFE0
:101AB0000DF071EF0DF05BEC00F002C013F201C00D
:101AC00012F213C235F212C234F27A0E0201376FEB
:101AD000120E366F0001C4EC0CF00152D8B4F2EFD4
:101AE0000CF02152D8A47BEF0DF0050E1A6E020106
:101AF000E9EF0DF00001000E19B4010E0108D8A4A1
:101B0000E8EF0DF00201116B2150115DD8B0E7EF45
:101B10000DF0436B000111C242F20201456B0C0E45
:101B2000446F000163EC07F002C035F201C034F2EB
:101B3000036A02011151140FE96E020E0320EA6ECE
:101B4000010EEF5C0124016E000E0220036E0150B5
:101B5000410FE96E000E0320EA6E0001EFCF38F26C
:101B60000201436B000111C242F20201456B0C0EEF
:101B7000446F000163EC07F002C03AF201C039F291
:101B8000410E020101243B6F000E02203C6F036AEC
:101B90001151140FE96E020E0320EA6E010EEF5C84
:101BA0003E6F00013CC240F23BC23FF23EC241F2F6
:101BB000E6EC04F001500201385DD8B4E4EF0DF01A
:101BC000080E1A6EE9EF0DF0112B84EF0DF00001F5
:101BD00002010001000C8A8C939C8A8E939E2250F5
:101BE000C408D8A4FDEF0DF01980230E02013C6F4C
:101BF0000001FAEC03F004EF0EF01990190E020147
:101C00003C6F0001FAEC03F08A9C939C8A9E939EA1
:101C10002250C408D8A415EF0EF00F0E02013C6F3D
:101C20000001FAEC03F01BEF0EF0190E02013C6FFD
:101C30000001FAEC03F0A4EF1AF002013151080898
:101C4000D8B450EF0EF031519008D8B450EF0EF0E8
:101C500031519308D8B450EF0EF031519408D8B4F4
:101C600050EF0EF031519A08D8B450EF0EF03151C8
:101C70009B08D8B450EF0EF031519E08D8B450EF05
:101C80000EF031519F08D8B450EF0EF03151A20838
:101C9000D8B450EF0EF03151A308D8A456EF0EF08F
:101CA000010E016E5AEF0EF05AEF0EF0000E016EAB
:101CB0005AEF0EF00001000C020110510808D8B4D0
:101CC0008FEF0EF010519108D8B48FEF0EF0105135
:101CD0009308D8B48FEF0EF010519508D8B48FEF59
:101CE0000EF010519A08D8B48FEF0EF010519C08E6
:101CF000D8B48FEF0EF010519E08D8B48FEF0EF0CD
:101D00001051A008D8B48FEF0EF01051A208D8B42B
:101D10008FEF0EF01051A408D8A495EF0EF0010E2D
:101D2000016E99EF0EF099EF0EF0000E016E99EF33
:101D30000EF00001000C18C26FFF6E50E00B0201A4
:101D4000185DD8B403D000019DEF0EF00001000C27
:101D50000201180719071A071B071C071839706EAC
:101D600070367036C00E7016195170121A35716EB9
:101D700071367136F80E71161C5171121DB5C2EF15
:101D80000EF0718C1DA1C6EF0EF0718E00011BC20A
:101D900072FF02011DA3CEEF0EF0728C000171EFF5
:101DA00010F0020E0201446F3E0E436F42A731EF66
:101DB0000FF0000102013C51456F00010201435147
:101DC000E96E4451EA6EEF30006E003200321F0EB1
:101DD00000160050486F00013DC2EAFF45C2E9FF0E
:101DE00048C2EFFF02013C51456F00013DC2EAFFCE
:101DF00045C2E9FFEFCF47F2010E02014325E96E2C
:101E0000000E4421EA6EEF38006E0036E00E001638
:101E100000504711496F00013DC2EAFF45C2E9FF8A
:101E200049C2EFFF02013C2BD8B43D2B0001020157
:101E30003C51456F000102014351E96E4451EA6E85
:101E4000EF38006E0036E00E00160050486F0001BB
:101E50003DC2EAFF45C2E9FF48C2EFFFE1EF0FF0E4
:101E60000201000102013C51456F0001020E020116
:101E70004325E96E000E4421EA6EEF38006E003211
:101E8000070E00160050486F00013DC2EAFF45C230
:101E9000E9FF48C2EFFF02013C51456F00013DC21E
:101EA000EAFF45C2E9FFEFCF47F2030E02014325E7
:101EB000E96E000E4421EA6EEF34006E0036003603
:101EC000F80E001600504711496F00013DC2EAFFAD
:101ED00045C2E9FF49C2EFFF02013C2BD8B43D2BBC
:101EE000000102013C51456F0001020E0201432531
:101EF000E96E000E4421EA6EEF34006E00360036C3
:101F0000F80E00160050E00B496F00013DC2EAFFD9
:101F100045C2E9FF49C2EFFF02013C51E96E0001F1
:101F20003DC2EAFFEF500809EF6E02013C51456FD8
:101F300000013DC2EAFF45C2E9FFEFCF47F2020EC2
:101F400002014325E96E000E4421EA6EEF50030BB7
:101F50004711496F00013DC2EAFF45C2E9FF49C28E
:101F6000EFFF02013C2BD8B43D2B000102013C5194
:101F7000456F0001010E02014325E96E000E442168
:101F8000EA6EEF50476F00013DC2EAFF45C2E9FF2C
:101F900047C2EFFF02013C2BD8B43D2B00010201E8
:101FA0003C51456F000102014351E96E4451EA6E14
:101FB000EF50476F00013DC2EAFF45C2E9FF47C24B
:101FC000EFFF000C02011853D8A4EDEF0FF00F0E35
:101FD0001F6F180E1E6FF1EF0FF00F0E1F6F1C0E0C
:101FE0001E6F00011FC23DF21EC23CF21CC241F234
:101FF0001BC240F21AC23FF219C23EF21DC242F2A7
:10200000D1EC0EF0000C02011851006E00520001DC
:10201000D8B421EF10F0010E005CD8B427EF10F017
:10202000020E005CD8B42EEF10F0030E005CD8B4A2
:1020300035EF10F0040E005CD8B43CEF10F044EF24
:1020400010F00F0E02011F6F1E6B4BEF10F00F0E02
:1020500002011F6F040E1E6F4BEF10F00F0E0201F6
:102060001F6F080E1E6F4BEF10F00F0E02011F6F57
:102070000C0E1E6F4BEF10F00F0E02011F6F100EB3
:102080001E6F4BEF10F000010F0E02011F6F140EB8
:102090001E6F4BEF10F000011FC23DF21EC23CF25A
:1020A0001CC241F21BC240F21AC23FF219C23EF2F8
:1020B0001DC242F2D1EC0EF0000C800E0201186F2E
:1020C00000019BEC0EF010C218F211C219F212C2FC
:1020D0001AF213C21BF214C21CF215C21DF2A8EFB1
:1020E0000EF002011551600B606E1551100BFF08C8
:1020F000D8A47CEF10F06084000160CF50FF020193
:10210000186B1C6B1B6B1A6B196BF70E1D6F0001A4
:10211000E2EC0FF0010E0201186F1C6B1B6B1A6BC7
:10212000196BF70E1D6F0001E2EC0FF00201155163
:10213000600B9F09006EDF0E005C0001D8B4A8EFB1
:1021400010F0BF0E005CD8B4AEEF10F0B5EF10F099
:10215000F70E0201166F176FBCEF10F0FF0E0201B1
:10216000166F176FBCEF10F00001FF0E0201166F23
:10217000F70E176FBCEF10F0186B1C6B1B6B1A6B14
:10218000196B000116C21DF203EC10F0010E0201E2
:10219000186F1C6B1B6B1A6B196B000116C21DF2BA
:1021A00003EC10F0020E0201186F1C6B1B6B1A6B14
:1021B000196B000117C21DF203EC10F0030E0201AF
:1021C000186F1C6B1B6B1A6B196B000117C21DF289
:1021D00003EC10F0040E0201186F1C6B1B6B1A6BE2
:1021E000196B000117C21DF203EC10F0050E02017D
:1021F000186F1C6B1B6B1A6B196B000117C21DF259
:1022000003EC10F00201186B00019BEC0EF0000CC7
:1022100022C031F21DEC0EF00152D8B4ACEF11F037
:1022200022C010F25CEC0EF00152D8B42AEF11F08B
:10223000030E0201106F020E116F080E126F040ED2
:10224000136F070E146FBB0E156F00015DEC10F0DD
:102250003AEF11F0030E0201106F010E116F080E1C
:10226000126F040E136F070E146FBB0E156F000173
:102270005DEC10F0800E0201186F00019BEC0EF077
:102280000201186B000103C21CF202C21BF201C260
:102290001AF200C219F2FF0E02011D6F0001E2ECFA
:1022A0000FF00201186B000107C21CF206C21BF2FC
:1022B00005C21AF204C219F2FF0E02011D6F0001DD
:1022C00003EC10F0010E0201186FFF0E1C6F1B6F64
:1022D0001A6F196F1D6F0001E2EC0FF0010E020181
:1022E000186F1C6B1B6B1A6B196BF70E1D6F0001BF
:1022F00003EC10F0020E0201186F1C6B1B6B1A6BC3
:10230000196BF70E1D6F000103EC10F0030E0201B4
:10231000186F1C6B1B6B1A6B196BF70E1D6F00018E
:1023200003EC10F0040E0201186F1C6B1B6B1A6B90
:10233000196BF70E1D6F000103EC10F0050E020182
:10234000186F1C6B1B6B1A6B196BF70E1D6F00015E
:1023500003EC10F047EF12F022C010F25CEC0EF02C
:102360000152D8B4C6EF11F0030E0201106F020E35
:10237000116F080E126F040E136F070E146FDB0E31
:10238000156F00015DEC10F0D6EF11F0030E0201A5
:10239000106F010E116F080E126F040E136F070EEF
:1023A000146FDB0E156F00015DEC10F0800E020162
:1023B000186F00019BEC0EF00201186B00010BC2BC
:1023C0001CF20AC21BF209C21AF208C219F2F70E75
:1023D00002011D6F0001E2EC0FF00201186B000119
:1023E0000FC21CF20EC21BF20DC21AF20CC219F27D
:1023F000F70E02011D6F000103EC10F0010E020147
:10240000186FFF0E1C6F1B6F1A6F196FF70E1D6F81
:102410000001E2EC0FF0010E0201186F1C6B1B6B48
:102420001A6B196BFF0E1D6F000103EC10F0020E0A
:102430000201186F1C6B1B6B1A6B196BFF0E1D6F63
:10244000000103EC10F0030E0201186F1C6B1B6BF4
:102450001A6B196BFF0E1D6F000103EC10F0040ED8
:102460000201186F1C6B1B6B1A6B196BFF0E1D6F33
:10247000000103EC10F0050E0201186F1C6B1B6BC2
:102480001A6B196BFF0E1D6F000103EC10F00201B7
:10249000186B00019BEC0EF094968B96C9EF13F02D
:1024A00002011051E96E1151EA6EEF50196B186B71
:1024B000176B166F000116C215F20201126B136B37
:1024C000146B010E1025E96E000E1121EA6EEF501B
:1024D000196B186B176B166F0001006A016A0050C8
:1024E000020112130150131316511413175115132F
:1024F000020E1025E96E000E1121EA6EEF50176BE7
:10250000166F0001000E0201121316511313030E71
:102510001025E96E000E1121EA6EEF501213000132
:1025200012C200F013C201F014C202F015C203F08F
:10253000000C020110519E08D8B4AEEF12F01051F9
:102540009F08D8B4AEEF12F01051A008D8B4AEEF87
:1025500012F01051A108D8A4B4EF12F0010E016ED0
:10256000B8EF12F0B8EF12F0000E016EB8EF12F0F3
:102570000001DFEF13F00201396B000E0F0140B7CD
:10258000010E02013C6F000E0F0130B7010E020177
:102590003C153D6F000E0F0120B7010E02013D15E5
:1025A0000108D8A4E6EF12F0010E3C6F0001FAEC2E
:1025B00003F00201392B39513108D8B0E4EF12F0A1
:1025C000000E016E7CEF13F0BDEF12F0000E0F0154
:1025D00040B7010E000AD8A4F3EF12F0F10E6F1607
:1025E0006F8612EF13F0000E30B7010E000AD8A468
:1025F00000EF13F0F10E6F16060E6F1212EF13F0CC
:10260000000E20B7010E000AD8A40CEF13F0F10E53
:102610006F166F8412EF13F0000E016E02017CEF53
:1026200013F00F0102013851030B606E38B72FEF22
:1026300013F00F0E3D6F610E3C6F000134C241F28A
:1026400033C240F232C23FF231C23EF2F70E020113
:10265000426F0001D1EC0EF042EF13F002010F0EB9
:102660003D6F610E3C6F000134C241F233C240F253
:1026700032C23FF231C23EF2FF0E0201426F000150
:10268000D1EC0EF037C265FF020138BD49EF13F0FF
:10269000658C0F0E3B6F660E3A6F396B3751395DA3
:1026A000D8B077EF13F0036A39513A25016E3B51E8
:1026B000032201503C6F000103C03DF2036A020196
:1026C00039513525E96E36510320EA6EEF50036A21
:1026D0003E6F00013DC2EAFF3CC2E9FF03C0ECFFD0
:1026E000ED523EC2EFFF0201392B4EEF13F0608630
:1026F000F10E6F16010E016E0001000C22C031F2C6
:102700001DEC0EF00152D8B4A2EF13F0FFC134F269
:10271000FEC133F2FDC132F2FCC131F230C236F2F9
:102720002FC235F2080E0201376FFC0E386F000120
:10273000BBEC12F00152D8A4A0EF13F0180E1A6EE1
:10274000BCEF13F0FFC134F2FEC133F2FDC132F22F
:10275000FCC131F230C236F22FC235F2080E02014E
:10276000376FF40E386F0001BBEC12F00152D8A4A1
:10277000BCEF13F0180E1A6E000C2250235CD8A484
:10278000C5EF13F018A8CBEF13F01898188A08EFCC
:1027900011F0CCEF13F0189A0201116B340E106F88
:1027A000000150EC12F003C0FFF102C0FEF101C0C5
:1027B000FDF100C0FCF122C010F299EF12F00152BD
:1027C000D8A4EAEF13F00201306B380E2F6F00012E
:1027D0007EEC13F0C0EF1AF002011051A208D8B439
:1027E00006EF14F01051A308D8B406EF14F01051FE
:1027F000A408D8B406EF14F01051A508D8B406EF19
:1028000014F01051A608D8A40CEF14F0010E016EBC
:1028100010EF14F010EF14F0000E016E10EF14F032
:102820000001C8EF1AF00101FB6BCC6BCB6B000110
:1028300072EF14F00101FB53D8A423EF14F0000E43
:10284000016E53EF14F002012F6B0101FB510201E5
:102850002F5DD8B050EF14F0D8902F35036ACB0F0E
:10286000E96E010E0320EA6E0001ECCF31F2ED5269
:10287000EFCF30F2020131BF4DEF14F03153D8A445
:1028800047EF14F030510008D8B04DEF14F0010EAE
:10289000016E010153EF14F002012F2B25EF14F00C
:1028A000020E016E01010001000C300E0201106FDA
:1028B000116B126B136B146B156B166B176B00019E
:1028C0005BEC00F002C019F201C018F202011D6BAE
:1028D0001C6B1B6B1A6B216B206B1F6B1E6B00013B
:1028E00013EF14F019C23BF218C23AF294EC08F05C
:1028F00002C02AF201C029F20201295118272A51E7
:10290000192329511A272A511B23000E1C231D238A
:1029100029511E272A511F23000E202321231A523A
:10292000D8B497EF14F03BEF17F0F4EF14F0010177
:10293000C45102011D5DD8A0CDEF14F0D8A4BEEFA4
:1029400014F00101C35102011C5DD8A0CDEF14F0B9
:10295000D8A4BEEF14F00101C25102011B5DD8A042
:10296000CDEF14F0D8A4BEEF14F01A510101C15DEF
:10297000D8A003D00201CDEF14F0020100011AEC3F
:1029800014F0012CC8EF14F00201CDEF14F0000197
:102990002EEF17F0F5EF14F002012153D8A4E8EF61
:1029A00014F020510808D8B0F4EF14F0FF0AD8A4AE
:1029B000E8EF14F01F518808D8B0F4EF14F0FF0AC4
:1029C000D8A4E8EF14F01E516808D8B0F4EF14F062
:1029D00000011AEC14F0012C01D003D00201F4EF35
:1029E00014F02EEF17F0020100010201436B000109
:1029F00021C042F20201456B0C0E446F000163ECF2
:102A000007F002C030F201C02FF2030E02010124D0
:102A1000016E000E0220036E0150410F316F000E57
:102A20000320326F156AF2BE158EF29E020E796F88
:102A3000220E786F000132C27BF231C27AF2020EAE
:102A400002017D6F260E7C6F020E7F6F270E7E6F58
:102A50000001ADEC02F015BEF28E0152D8B42CEF9D
:102A600017F00201216B206B1F6B1E6B27A73FEF36
:102A700015F0160E1A6E3BEF17F044EF15F02651C5
:102A80000808D8B444EF15F02152D8A452EF15F03D
:102A9000000125C22EF224C22DF223C22CF222C242
:102AA0002BF20201436B000121C042F20201456B8F
:102AB0000C0E446F000163EC07F002C030F201C05D
:102AC0002FF2030E02010124016E000E0220036E9C
:102AD0000150410FE96E000E0320EA6EEF50F00B3B
:102AE0001008D8A42BEF16F0020E306F100E2F6FC7
:102AF00000017EEC13F01A52D8B483EF15F00201F6
:102B00003BEF17F00001D8900101FB35036ACB0FB2
:102B1000016E010E0322015002012F6F000103C05C
:102B200030F20201436B000121C042F20201456B09
:102B30000C0E446F000163EC07F001C031F2030E8C
:102B400002010124016E000E0220036E0150410FAC
:102B5000E96E000E0320EA6EEF500F0B000E036AC1
:102B6000356F000130C2EAFF2FC2E9FF03C0ECFF5E
:102B7000ED5235C2EFFFD8900101FB35036ACB0F50
:102B8000016E010E0322015002012F6F000103C0EC
:102B900030F203C0EAFF2FC2E9FF0201326B0001ED
:102BA000EFCF31F20201436B000121C042F202017A
:102BB000456B0C0E446F000163EC07F001C033F26B
:102BC000040E02010124016E000E0220036E01506A
:102BD000410FE96E000E0320EA6EEF503111006ED6
:102BE0003251036E0050356F000130C2EAFF2FC230
:102BF000E9FF03C0ECFFED5235C2EFFFD8900101B1
:102C0000FB35036ACB0FE96E010E0320EA6E060E58
:102C1000EF5C006E000EEC58036E0050ED52EF6E4C
:102C2000000103C0ECFF0101FB51040DF350036AE6
:102C3000DB0FE96E010E0320EA6E000122C2EFFFF6
:102C400023C2ECFF24C2ECFF25C2ECFF0101FB2BE9
:102C500095EF16F00201436B000121C042F2020120
:102C6000456B0C0E446F000163EC07F002C030F2BC
:102C700001C02FF2030E02010124016E000E02209A
:102C8000036E0150410FE96E000E0320EA6EEF5013
:102C9000F00B2008D8A494EF16F0286B28510708F1
:102CA000D8A094EF16F02851040DF350036ADB0FFF
:102CB000E96E010E0320EA6E0001EFCF00F0ECCFC9
:102CC00001F0ECCF02F0ECCF03F000500201225DE6
:102CD000D8A491EF16F00150235DD8A491EF16F01F
:102CE0000250245DD8A491EF16F00350255DD8A4BE
:102CF00091EF16F0D8902835036ACB0FE96E010EDC
:102D00000320EA6E070EEF5C006E000EEC58036EB7
:102D10000050ED52EF6E000103C0ECFF020194EF92
:102D200016F0282B4EEF16F001010201436B000153
:102D300021C042F20201456B0C0E446F000163ECAE
:102D400007F002C030F201C02FF2410E020101244F
:102D5000E96E000E0220EA6E0001026A036A24C2D4
:102D6000EFFF0201436B000121C042F20201456BFB
:102D70000C0E446F000163EC07F002C030F201C09A
:102D80002FF2010E02010124016E000E0220036EDB
:102D90000150410FE96E000E0320EA6E0001036A44
:102DA00023C2EFFF0201436B000121C042F2020186
:102DB000456B0C0E446F000163EC07F001C02FF26D
:102DC000020E02010124016E000E0220036E01506A
:102DD000410FE96E000E0320EA6E000122C2EFFFF0
:102DE00018A60DEF17F0020122512B5DD8A40AEFAF
:102DF00017F023512C5DD8A40AEF17F024512D5D54
:102E0000D8A40AEF17F025512E5DD8A403D00001F5
:102E10000DEF17F0000172EF14F0212A21501F0866
:102E2000D8B015EF17F02EEF17F018A62CEF17F00B
:102E30000101CCBF29EF17F0CC53D8B403D0000167
:102E40002CEF17F0CB510008D8B003D000012CEFC5
:102E500017F000012EEF17F072EF14F02152D8A4F2
:102E60003AEF17F01A52D8A43AEF17F0150E1A6E6F
:102E700074CF1BF002010001CEEF1AF01888335016
:102E80009708D8A464EF17F00201116B340E106F8D
:102E9000000150EC12F003C003F202C002F201C0C4
:102EA00001F200C000F20201116B380E106F000138
:102EB00050EC12F003C007F202C006F201C005F2A6
:102EC00000C004F282EF17F00201116B340E106F94
:102ED000000150EC12F003C00BF202C00AF201C074
:102EE00009F200C008F20201116B380E106F0001E8
:102EF00050EC12F003C00FF202C00EF201C00DF24E
:102F000000C00CF2DEEF1AF00201186B196B010E13
:102F10001A6FDA6AD96A020E1D6F100E1C6F020E4C
:102F2000EA6E140EE96E00011DC2E2FF1CC2E1FF51
:102F30001AC21BF2D890E550EE02F350020118239A
:102F4000F45019231B2F01D003D000019AEF17F082
:102F5000000118C2DEFF19C218F20201196BD8B0C5
:102F6000192B1C2B1A2B1A510508D8A48FEF17F018
:102F70000001DCEF17F00201116B340E106F00013D
:102F800050EC12F003C0C4F102C0C3F101C0C2F1A1
:102F900000C0C1F1C4C113F2C3C112F2C2C111F227
:102FA000C1C110F20201176B166B270E156F100EC0
:102FB000146F000184EF17F0020103300101C46FA8
:102FC000020102300101C36F020101300101C26F31
:102FD000020100300101C16FC433C333C233C133B6
:102FE000C433C333C233C133C433C333C233C13335
:102FF0000F0EC4170001E7EF1AF017500808D8A405
:1030000022EF18F0000E016EC250C70B0110C26E05
:10301000100E006E002EFED70000C284C2B40EEF68
:1030200018F0C450036EC3500201106F000103C0BA
:1030300011F202011151036A416E000110C242F007
:103040002AEF18F0C282C2B223EF18F0C4CF41F0C9
:10305000C3CF42F0F0EF1AF03452D8A433EF18F097
:10306000199434EF18F01984F9EF1AF03452D8A4F7
:103070003DEF18F019923EEF18F0198202EF1BF0A5
:103080003452D8A447EF18F0189E48EF18F0188E65
:103090000BEF1BF03452D8A451EF18F0199052EFF7
:1030A00018F0198014EF1BF002011E6B1E5103086B
:1030B000D8A07DEF18F01F0E1E25016E020E036EC4
:1030C000D8B0032A0150E96E000103C0EAFFFC0EEC
:1030D00002011E25256F0001F2CF26F2F29EAA6A98
:1030E00025C2A9FFA69CA69EA680A850020126BFC5
:1030F000F28EEF6E1E2B56EF18F000011FC200F08B
:1031000020C201F021C202F022C203F0000C54ECF4
:1031100018F003C01DF202C01CF201C01BF200C077
:103120001AF2020119511E6FD8B49FEF18F0D8900F
:103130001D331C331B331A331E2F97EF18F01A510F
:10314000010B006E1B51000B016E1C51000B026E37
:103150001D51000B036E0052D8A4BBEF18F00152B2
:10316000D8A4BBEF18F00252D8A4BBEF18F003525A
:10317000D8B4C1EF18F0000E016EC5EF18F0C5EF1E
:1031800018F0010E016EC5EF18F00001000C34506C
:103190001E08D8B0D0EF18F0860E1A6E05EF19F0A1
:1031A00034C041F034C019F287EC18F00152D8B4A1
:1031B000DEEF18F0010E426EDFEF18F0426A0201F6
:1031C000106B10510708D8A004EF19F0020E10255B
:1031D000410FE96EEA6AD8B0EA2A3450080DF3507C
:1031E0001025156F0001F2CF16F2F29EAA6A15C2E1
:1031F000A9FFA69CA69EA680A850020116BFF28E2B
:10320000EF6E102BE1EF18F000011DEF1BF0020133
:103210001D6B1D510308D8A03AEF19F0FC0E1D25B7
:103220001E6F190E1D25016E020E036ED8B0032A03
:103230000150E96E000103C0EAFFEFCF1FF2AA6A56
:103240001EC2A9FF1FC2A8FFA69CA69EA684F2507C
:10325000006EF29E0F01550EA76EAA0EA76EA682F3
:10326000A6B230EF19F0A6940050F21202011D2B05
:1032700009EF19F00001C5EF19F034501E08D8B05D
:1032800046EF19F0860E1A6EC9EF19F034C019F224
:1032900087EC18F00152D8B452EF19F0870E1A6E6D
:1032A000C9EF19F00201106B10510708D8A084EF84
:1032B00019F03450080DF35010251A6F040E102524
:1032C000036A320FE96E000E0320EA6E0001EFCFB1
:1032D0001CF2AA6A1AC2A9FF1CC2A8FFA69CA69E3D
:1032E000A684F250006EF29E0F01550EA76EAA0E34
:1032F000A76EA682A6B27AEF19F0A6940050F21239
:103300000201102B54EF19F03552D8B4C6EF19F062
:10331000000154EC18F003C014F202C013F201C013
:1033200012F200C011F20201186B176B166B010E3E
:10333000156F3450196FD8B4A6EF19F0D89015371F
:10334000163717371837192F9EEF19F01551006EE1
:10335000001E1651016E011E1751026E021E1851F9
:10336000036E031E0050111701501217025013175D
:1033700003501417000114C21CF213C21BF212C234
:103380001AF211C219F207EF19F00201000134C05C
:1033900041F026EF1BF0216A6F50E00B2008D8B4F3
:1033A000E2EF19F0156AF2BE158EF29E22C078F295
:1033B000E7EC00F015BEF28E0152D8A4E2EF19F04E
:1033C00094EC00F022C010F243EF05F00152D8B4A3
:1033D000EDEF19F01886EEEF19F01896225002085A
:1033E000D8B4F8EF19F022508208D8A40EEF1AF0E2
:1033F000F80E18140109186E010E0201106F000179
:1034000019EC07F01A52D8A40CEF1AF0010E0201C1
:10341000106F000111EC09F032EF1BF0225004088C
:10342000D8B41DEF1AF022508008D8B41DEF1AF05E
:1034300022508408D8A433EF1AF0F80E18140209A9
:10344000186E020E0201106F000119EC07F01A52FB
:10345000D8A431EF1AF0020E0201106F000111EC36
:1034600009F032EF1BF0222C38EF1AF03DEF1AF082
:1034700022508508D8A45DEF1AF0222C4BEF1AF0E9
:10348000F80E1814186E330E0201106F00017CEC58
:103490000BF053EF1AF0F80E18140309186E36C02B
:1034A00010F27CEC0BF01A52D8A45BEF1AF071EC1E
:1034B0000CF0ECEC0CF032EF1BF022501008D8B4FA
:1034C00076EF1AF022508108D8B476EF1AF0225025
:1034D0008808D8B476EF1AF022508908D8B476EF6D
:1034E0001AF02250A608D8A494EF1AF0225010081F
:1034F000D8B480EF1AF022508108D8A485EF1AF0D2
:10350000F80E1814186E89EF1AF0F80E1814030943
:10351000186E71EC0CF02250A608D8B492EF1AF095
:10352000ECEC0CF032EF1BF022508708D8B49EEF81
:103530001AF02250C408D8A4AAEF1AF0F80E1814F2
:103540000309186EEBEF0DF071EC0CF0ECEC0CF0E5
:1035500032EF1BF0156AF2BE158EF29E22C078F291
:10356000E7EC00F015BEF28E0152D8B4D2EF1AF09B
:10357000A392A390F80E18140409186EBDEF13F06F
:103580001A52D8A4CEEF1AF022C010F2ECEF13F0CA
:103590000152D8A4CEEF1AF055EF14F0A382A38005
:1035A00032EF1BF022509708D8B4DCEF1AF022500B
:1035B0009808D8A4E0EF1AF03EEF17F032EF1BF0B6
:1035C00022509908D8A4E9EF1AF0BBEF17F032EFB8
:1035D0001BF02250F008D8A4F2EF1AF0FDEF17F01C
:1035E00032EF1BF02250AC08D8A4FBEF1AF02CEFFE
:1035F00018F032EF1BF02250AD08D8A404EF1BF0F6
:1036000036EF18F032EF1BF02250A908D8A40DEFC6
:103610001BF040EF18F032EF1BF02250AB08D8A49B
:1036200016EF1BF04AEF18F032EF1BF02250B908EA
:10363000D8A41FEF1BF0C7EF18F032EF1BF0225099
:10364000BA08D8A428EF1BF03DEF19F032EF1BF0B9
:103650002250B008D8A430EF1BF0189C32EF1BF0BA
:10366000010E1A6E35EF1DF02D0E326E800E336E88
:10367000FF0E346E1AC035F05F0E366E080E376ED0
:103680001BC038F01CC039F01DC03AF00201406B7D
:10369000330E3F6F0C0E416F0001E6EC04F001C0E9
:1036A0003FF00201106B10510D08D8A06BEF1BF01A
:1036B000036A1051320FE96E000E0320EA6E00011A
:1036C000EFCF11F2020111519EA864EF1BF0AD6E15
:1036D000102B53EF1BF0216A1A6A00013BEF1DF01B
:1036E0000201116B2150115DD8B00AEF1CF02D0EB4
:1036F000326E1850070B000AD8A483EF1BF0810E1E
:10370000336EA9EF1BF01850070B0108D8A48DEFFA
:103710001BF0820E336EA9EF1BF01850070B020846
:10372000D8A497EF1BF0840E336EA9EF1BF018504E
:10373000070B0308D8A4A1EF1BF0010E336EA9EF0D
:103740001BF01850070B0408D8A4A9EF1BF0880E33
:10375000336E106B10510A08D8A0E3EF1BF0020E75
:103760001025036A320F016E000E03220150136F01
:10377000000103C014F20201436B000111C242F2C6
:103780000201456B0C0E446F000163EC07F001C0B1
:1037900015F2020110510124016E000E0220036E89
:1037A0000150410FE96E000E0320EA6EEF50176FD3
:1037B000000114C2EAFF13C2E9FF17C2EFFF0201C2
:1037C000102BAAEF1BF0406B330E3F6F0C0E416FB6
:1037D0000001E6EC04F001C03FF00201106B105153
:1037E0000D08D8A007EF1CF0036A1051320FE96EE4
:1037F000000E0320EA6E0001EFCF12F20201125117
:103800009EA800EF1CF0AD6E102BEFEF1BF0112BFC
:1038100072EF1BF0216A000147EF1DF02D0E326E92
:10382000400E336E22C034F00201106B10510908B3
:10383000D8A039EF1CF0030E1025036A320F016E79
:10384000000E03220150126F0001410E02011025EB
:10385000E96EEA6AD8B0EA2AEF50146F000103C09B
:10386000EAFF12C2E9FF14C2EFFF0201102B16EFAC
:103870001CF0406B330E3F6F0C0E416F0001E6EC05
:1038800004F001C03FF00201106B10510D08D8A0E8
:103890005DEF1CF0036A1051320FE96E000E032039
:1038A000EA6E0001EFCF11F2020111519EA856EF0E
:1038B0001CF0AD6E102B45EF1CF000014BEF1DF01E
:1038C000F86AD09E0D8EEA6AE96A060EC16E186A21
:1038D000196A1A6A1B6A1C6A1D6A1E6A1F6A206AB4
:1038E000216A226A236A120E0101C16F7A0EC26F29
:1038F000C36BC46B939C8A9C939C8A9C939E8A9E68
:10390000939E8A9E0A0EAF6E260EAC6E900EAB6E24
:10391000C56BC66B010EC76FC86BC96BCA6BCB6B2F
:10392000CC6BCD6BCE6BCF6BD06BD16BD26BD36BC3
:10393000D46BD56BD66BD76BD86BD96BDA6BDB6B73
:10394000DC6BDD6BDE6BDF6BE06BE16BE26BE36B23
:10395000E46BE56BE66BE76BE86BE96BEA6BEB6BD3
:10396000EC6BED6BEE6BEF6BF06BF16BF26BF36B83
:10397000F46BF56BF66BF76BF86BF96BFA6BFB6B33
:10398000FC6BFD6BFE6BFF6BF80E0201006F070E08
:10399000016F026B036BE80E046F070E056F066B79
:1039A000076B086BFF0E096F0A6F1F0E0B6F0C6B16
:1039B000F10E0D6FDA0E0E6F180E0F6F93988A8846
:1039C000188C198219840001EEEF03F094EC00F0DA
:1039D000B50ECD6E8E0EC16E3F0EF86EFF0EF76EF9
:1039E000FE0EF66E0900F5500800F5CF03F0F86AF8
:1039F000166E3F0EF86EFF0EF76EF66E0900F5506C
:103A00000800F5CF03F0F86A176E17500808D8A41D
:103A100017EF1DF0C18CC250380B8109C26E000E29
:103A2000016EC250C70B0110C26E1BEF1DF0AD0E30
:103A3000C06E010EC26EC00EF2129D8AA38AA382CE
:103A4000A380A38E32EF04F01E500E08D8B04FEFC3
:103A50001DF09D9A1A6AFFEF04F01A52D8A435EFB0
:103A60001DF033C022F0CBEF19F01A52D8B43DEF5D
:103A70001DF034EF1BF04BEF1DF022C010F2A2EC52
:103A800004F00152D8A449EF1DF070EF1BF04BEF8A
:103A90001DF00EEF1CF01E6A22C023F09D8A9D9A35
:103AA00020C035F21FC034F23D0E0201376F090EFF
:103AB000366F0001C4EC0CF00152D8B461EF1DF078
:0A3AC0001E6A9D8A24EF1DF003002A
:020000040030CA
:0E00000000220C0E0000810000800080000035
:00000001FF
;PIC18F248
